{
  "contractName": "ManufactoryRole",
  "abi": [
    {
      "inputs": [],
      "payable": false,
      "stateMutability": "nonpayable",
      "type": "constructor"
    },
    {
      "anonymous": false,
      "inputs": [
        {
          "indexed": true,
          "name": "account",
          "type": "address"
        }
      ],
      "name": "ManufactoryAdded",
      "type": "event"
    },
    {
      "anonymous": false,
      "inputs": [
        {
          "indexed": true,
          "name": "account",
          "type": "address"
        }
      ],
      "name": "ManufactoryRemoved",
      "type": "event"
    },
    {
      "constant": true,
      "inputs": [
        {
          "name": "account",
          "type": "address"
        }
      ],
      "name": "isManufactory",
      "outputs": [
        {
          "name": "",
          "type": "bool"
        }
      ],
      "payable": false,
      "stateMutability": "view",
      "type": "function"
    },
    {
      "constant": false,
      "inputs": [
        {
          "name": "account",
          "type": "address"
        }
      ],
      "name": "addManufactory",
      "outputs": [],
      "payable": false,
      "stateMutability": "nonpayable",
      "type": "function"
    },
    {
      "constant": false,
      "inputs": [],
      "name": "renounceManufactoryr",
      "outputs": [],
      "payable": false,
      "stateMutability": "nonpayable",
      "type": "function"
    }
  ],
  "bytecode": "0x608060405234801561001057600080fd5b506100203361002560201b60201c565b6101c7565b61003d81600061008360201b6103271790919060201c565b8073ffffffffffffffffffffffffffffffffffffffff167fd68dbe39604d35004992ec6b655645f1acada02402c5e53e877ea1ae5e9d485c60405160405180910390a250565b600073ffffffffffffffffffffffffffffffffffffffff168173ffffffffffffffffffffffffffffffffffffffff1614156100bd57600080fd5b6100cd828261013560201b60201c565b156100d757600080fd5b60018260000160008373ffffffffffffffffffffffffffffffffffffffff1673ffffffffffffffffffffffffffffffffffffffff16815260200190815260200160002060006101000a81548160ff0219169083151502179055505050565b60008073ffffffffffffffffffffffffffffffffffffffff168273ffffffffffffffffffffffffffffffffffffffff16141561017057600080fd5b8260000160008373ffffffffffffffffffffffffffffffffffffffff1673ffffffffffffffffffffffffffffffffffffffff16815260200190815260200160002060009054906101000a900460ff16905092915050565b6103ff806101d66000396000f3fe608060405234801561001057600080fd5b50600436106100415760003560e01c80630bcc023514610046578063ab73b61914610050578063c83ecf10146100ac575b600080fd5b61004e6100f0565b005b6100926004803603602081101561006657600080fd5b81019080803573ffffffffffffffffffffffffffffffffffffffff1690602001909291905050506100fb565b604051808215151515815260200191505060405180910390f35b6100ee600480360360208110156100c257600080fd5b81019080803573ffffffffffffffffffffffffffffffffffffffff169060200190929190505050610118565b005b6100f933610136565b565b600061011182600061019090919063ffffffff16565b9050919050565b610121336100fb565b61012a57600080fd5b61013381610222565b50565b61014a81600061027c90919063ffffffff16565b8073ffffffffffffffffffffffffffffffffffffffff167f841c13e167e6ee3a57f870a2c693dc66ea0b7110857773a2aca7d6871faf802260405160405180910390a250565b60008073ffffffffffffffffffffffffffffffffffffffff168273ffffffffffffffffffffffffffffffffffffffff1614156101cb57600080fd5b8260000160008373ffffffffffffffffffffffffffffffffffffffff1673ffffffffffffffffffffffffffffffffffffffff16815260200190815260200160002060009054906101000a900460ff16905092915050565b61023681600061032790919063ffffffff16565b8073ffffffffffffffffffffffffffffffffffffffff167fd68dbe39604d35004992ec6b655645f1acada02402c5e53e877ea1ae5e9d485c60405160405180910390a250565b600073ffffffffffffffffffffffffffffffffffffffff168173ffffffffffffffffffffffffffffffffffffffff1614156102b657600080fd5b6102c08282610190565b6102c957600080fd5b60008260000160008373ffffffffffffffffffffffffffffffffffffffff1673ffffffffffffffffffffffffffffffffffffffff16815260200190815260200160002060006101000a81548160ff0219169083151502179055505050565b600073ffffffffffffffffffffffffffffffffffffffff168173ffffffffffffffffffffffffffffffffffffffff16141561036157600080fd5b61036b8282610190565b1561037557600080fd5b60018260000160008373ffffffffffffffffffffffffffffffffffffffff1673ffffffffffffffffffffffffffffffffffffffff16815260200190815260200160002060006101000a81548160ff021916908315150217905550505056fea165627a7a72305820a80a433d80a1b81c00e90199014e0b452e105bb7793e95cad4752a4fcab316340029",
  "source": "pragma solidity >=0.4.21 <0.6.0;\r\n\r\n// Import the library 'Roles'\r\nimport \"./Roles.sol\";\r\n\r\n// Define a contract 'ManufactoryRole' to manage this role - add, remove, check\r\ncontract ManufactoryRole {\r\n  using Roles for Roles.Role;\r\n\r\n  // Define 2 events, one for Adding, and other for Removing\r\n  event ManufactoryAdded(address indexed account);\r\n  event ManufactoryRemoved(address indexed account);\r\n\r\n  // Define a struct 'Manufactory' by inheriting from 'Roles' library, struct Role\r\n  Roles.Role private Manufacturers;\r\n\r\n  // In the constructor make the address that deploys this contract the 1st Manufactory\r\n  constructor() public {\r\n    _addManufactory(msg.sender);\r\n  }\r\n\r\n  // Define a modifier that checks to see if msg.sender has the appropriate role\r\n  modifier onlyManufactory() {\r\n    require(isManufactory(msg.sender));\r\n    _;\r\n  }\r\n\r\n  // Define a function 'isManufactory' to check this role\r\n  function isManufactory(address account) public view returns (bool) {\r\n    return Manufacturers.has(account);\r\n  }\r\n\r\n  // Define a function 'addManufactory' that adds this role\r\n  function addManufactory(address account) public onlyManufactory {\r\n    _addManufactory(account);\r\n  }\r\n\r\n  // Define a function 'renounceManufactory' to renounce this role\r\n  function renounceManufactoryr() public {\r\n    _removeManufactory(msg.sender);\r\n  }\r\n\r\n  // Define an internal function '_addManufactory' to add this role, called by 'addManufactory'\r\n  function _addManufactory(address account) internal {\r\n    Manufacturers.add(account);\r\n    emit ManufactoryAdded(account);\r\n  }\r\n\r\n  // Define an internal function '_removeManufactoryr' to remove this role, called by 'removeManufactory'\r\n  function _removeManufactory(address account) internal {\r\n    Manufacturers.remove(account);\r\n    emit ManufactoryRemoved(account);\r\n  }\r\n}",
  "sourcePath": "C:/Users/HP/Desktop/project6/nd1309-Project-6b-Example-Template/project-6/contracts/medAccesscontrol/ManufactoryRole.sol",
  "compiler": {
    "name": "solc",
    "version": "0.5.8+commit.23d335f2.Emscripten.clang"
  },
  "schemaVersion": "3.0.11",
  "updatedAt": "2019-08-06T07:43:08.012Z",
  "devdoc": {
    "methods": {}
  },
  "userdoc": {
    "methods": {}
  }
}