{
  "contractName": "SupplyChain",
  "abi": [
    {
      "inputs": [],
      "payable": true,
      "stateMutability": "payable",
      "type": "constructor"
    },
    {
      "anonymous": false,
      "inputs": [
        {
          "indexed": false,
          "name": "upc",
          "type": "uint256"
        }
      ],
      "name": "Created",
      "type": "event"
    },
    {
      "anonymous": false,
      "inputs": [
        {
          "indexed": false,
          "name": "upc",
          "type": "uint256"
        }
      ],
      "name": "Ordered",
      "type": "event"
    },
    {
      "anonymous": false,
      "inputs": [
        {
          "indexed": false,
          "name": "upc",
          "type": "uint256"
        }
      ],
      "name": "Shipped",
      "type": "event"
    },
    {
      "anonymous": false,
      "inputs": [
        {
          "indexed": false,
          "name": "upc",
          "type": "uint256"
        }
      ],
      "name": "Distributed",
      "type": "event"
    },
    {
      "anonymous": false,
      "inputs": [
        {
          "indexed": false,
          "name": "upc",
          "type": "uint256"
        }
      ],
      "name": "Provided",
      "type": "event"
    },
    {
      "anonymous": false,
      "inputs": [
        {
          "indexed": false,
          "name": "upc",
          "type": "uint256"
        }
      ],
      "name": "Bought",
      "type": "event"
    },
    {
      "constant": false,
      "inputs": [],
      "name": "kill",
      "outputs": [],
      "payable": false,
      "stateMutability": "nonpayable",
      "type": "function"
    },
    {
      "constant": false,
      "inputs": [
        {
          "name": "_upc",
          "type": "uint256"
        },
        {
          "name": "_originManufactoryID",
          "type": "address"
        },
        {
          "name": "_originManufactoryName",
          "type": "string"
        },
        {
          "name": "_originManufactoryInformation",
          "type": "string"
        },
        {
          "name": "_productNotes",
          "type": "string"
        },
        {
          "name": "_productPrice",
          "type": "uint256"
        }
      ],
      "name": "createItem",
      "outputs": [],
      "payable": false,
      "stateMutability": "nonpayable",
      "type": "function"
    },
    {
      "constant": false,
      "inputs": [
        {
          "name": "_upc",
          "type": "uint256"
        }
      ],
      "name": "orderItem",
      "outputs": [],
      "payable": false,
      "stateMutability": "nonpayable",
      "type": "function"
    },
    {
      "constant": false,
      "inputs": [
        {
          "name": "_upc",
          "type": "uint256"
        }
      ],
      "name": "shipItem",
      "outputs": [],
      "payable": false,
      "stateMutability": "nonpayable",
      "type": "function"
    },
    {
      "constant": false,
      "inputs": [
        {
          "name": "_upc",
          "type": "uint256"
        }
      ],
      "name": "distribueItem",
      "outputs": [],
      "payable": false,
      "stateMutability": "nonpayable",
      "type": "function"
    },
    {
      "constant": false,
      "inputs": [
        {
          "name": "_upc",
          "type": "uint256"
        }
      ],
      "name": "provideItem",
      "outputs": [],
      "payable": false,
      "stateMutability": "nonpayable",
      "type": "function"
    },
    {
      "constant": false,
      "inputs": [
        {
          "name": "_upc",
          "type": "uint256"
        }
      ],
      "name": "buyItem",
      "outputs": [],
      "payable": true,
      "stateMutability": "payable",
      "type": "function"
    },
    {
      "constant": true,
      "inputs": [
        {
          "name": "_upc",
          "type": "uint256"
        }
      ],
      "name": "fetchItemBufferOne",
      "outputs": [
        {
          "name": "itemSKU",
          "type": "uint256"
        },
        {
          "name": "itemUPC",
          "type": "uint256"
        },
        {
          "name": "ownerID",
          "type": "address"
        },
        {
          "name": "originManufactoryID",
          "type": "address"
        },
        {
          "name": "originManufactoryName",
          "type": "string"
        },
        {
          "name": "originManufactoryInformation",
          "type": "string"
        }
      ],
      "payable": false,
      "stateMutability": "view",
      "type": "function"
    },
    {
      "constant": true,
      "inputs": [
        {
          "name": "_upc",
          "type": "uint256"
        }
      ],
      "name": "fetchItemBufferTwo",
      "outputs": [
        {
          "name": "itemSKU",
          "type": "uint256"
        },
        {
          "name": "itemUPC",
          "type": "uint256"
        },
        {
          "name": "productID",
          "type": "uint256"
        },
        {
          "name": "productNotes",
          "type": "string"
        },
        {
          "name": "productPrice",
          "type": "uint256"
        },
        {
          "name": "itemState",
          "type": "uint256"
        },
        {
          "name": "distributorID",
          "type": "address"
        },
        {
          "name": "retailerID",
          "type": "address"
        },
        {
          "name": "consumerID",
          "type": "address"
        }
      ],
      "payable": false,
      "stateMutability": "view",
      "type": "function"
    }
  ],
  "bytecode": "0x6080604052336000806101000a81548173ffffffffffffffffffffffffffffffffffffffff021916908373ffffffffffffffffffffffffffffffffffffffff160217905550600160028190555060018081905550611ba1806100626000396000f300608060405260043610610099576000357c0100000000000000000000000000000000000000000000000000000000900463ffffffff168063377e6f071461009e57806341c0e1b5146101c7578063427ebc0b146101de57806366225ff91461020b57806377c459131461036d578063876d509b146104f35780638cb4acbf14610520578063e7fb74c71461054d578063f61c899a1461056d575b600080fd5b3480156100aa57600080fd5b506101c560048036038101908080359060200190929190803573ffffffffffffffffffffffffffffffffffffffff169060200190929190803590602001908201803590602001908080601f0160208091040260200160405190810160405280939291908181526020018383808284378201915050505050509192919290803590602001908201803590602001908080601f0160208091040260200160405190810160405280939291908181526020018383808284378201915050505050509192919290803590602001908201803590602001908080601f01602080910402602001604051908101604052809392919081815260200183838082843782019150505050505091929192908035906020019092919050505061059a565b005b3480156101d357600080fd5b506101dc61096d565b005b3480156101ea57600080fd5b50610209600480360381019080803590602001909291905050506109fe565b005b34801561021757600080fd5b5061023660048036038101908080359060200190929190505050610bc5565b604051808a8152602001898152602001888152602001806020018781526020018681526020018573ffffffffffffffffffffffffffffffffffffffff1673ffffffffffffffffffffffffffffffffffffffff1681526020018473ffffffffffffffffffffffffffffffffffffffff1673ffffffffffffffffffffffffffffffffffffffff1681526020018373ffffffffffffffffffffffffffffffffffffffff1673ffffffffffffffffffffffffffffffffffffffff168152602001828103825288818151815260200191508051906020019080838360005b8381101561032a57808201518184015260208101905061030f565b50505050905090810190601f1680156103575780820380516001836020036101000a031916815260200191505b509a505050505050505050505060405180910390f35b34801561037957600080fd5b5061039860048036038101908080359060200190929190505050610ded565b604051808781526020018681526020018573ffffffffffffffffffffffffffffffffffffffff1673ffffffffffffffffffffffffffffffffffffffff1681526020018473ffffffffffffffffffffffffffffffffffffffff1673ffffffffffffffffffffffffffffffffffffffff1681526020018060200180602001838103835285818151815260200191508051906020019080838360005b8381101561044c578082015181840152602081019050610431565b50505050905090810190601f1680156104795780820380516001836020036101000a031916815260200191505b50838103825284818151815260200191508051906020019080838360005b838110156104b2578082015181840152602081019050610497565b50505050905090810190601f1680156104df5780820380516001836020036101000a031916815260200191505b509850505050505050505060405180910390f35b3480156104ff57600080fd5b5061051e60048036038101908080359060200190929190505050611017565b005b34801561052c57600080fd5b5061054b600480360381019080803590602001909291905050506111be565b005b61056b60048036038101908080359060200190929190505050611385565b005b34801561057957600080fd5b50610598600480360381019080803590602001909291905050506116c1565b005b6105a261191a565b60606101a06040519081016040528060025481526020018981526020013373ffffffffffffffffffffffffffffffffffffffff1681526020018873ffffffffffffffffffffffffffffffffffffffff1681526020018781526020018681526020016002548a0181526020018581526020018481526020016000600581111561062657fe5b8152602001600073ffffffffffffffffffffffffffffffffffffffff168152602001600073ffffffffffffffffffffffffffffffffffffffff168152602001600073ffffffffffffffffffffffffffffffffffffffff16815250915081600360008a8152602001908152602001600020600082015181600001556020820151816001015560408201518160020160006101000a81548173ffffffffffffffffffffffffffffffffffffffff021916908373ffffffffffffffffffffffffffffffffffffffff16021790555060608201518160030160006101000a81548173ffffffffffffffffffffffffffffffffffffffff021916908373ffffffffffffffffffffffffffffffffffffffff16021790555060808201518160040190805190602001906107549291906119fc565b5060a08201518160050190805190602001906107719291906119fc565b5060c0820151816006015560e08201518160070190805190602001906107989291906119fc565b5061010082015181600801556101208201518160090160006101000a81548160ff021916908360058111156107c957fe5b02179055506101408201518160090160016101000a81548173ffffffffffffffffffffffffffffffffffffffff021916908373ffffffffffffffffffffffffffffffffffffffff16021790555061016082015181600a0160006101000a81548173ffffffffffffffffffffffffffffffffffffffff021916908373ffffffffffffffffffffffffffffffffffffffff16021790555061018082015181600b0160006101000a81548173ffffffffffffffffffffffffffffffffffffffff021916908373ffffffffffffffffffffffffffffffffffffffff1602179055509050506108b233611833565b905060408051908101604052806040805190810160405280600781526020017f4372656174656400000000000000000000000000000000000000000000000000815250815260200182815250600460008a815260200190815260200160002090600261091f929190611a7c565b506001600254016002819055507f06acbfb32bcf8383f3b0a768b70ac9ec234ea0f2d3b9c77fa6a2de69b919aad1886040518082815260200191505060405180910390a15050505050505050565b6000809054906101000a900473ffffffffffffffffffffffffffffffffffffffff1673ffffffffffffffffffffffffffffffffffffffff163373ffffffffffffffffffffffffffffffffffffffff1614156109fc576000809054906101000a900473ffffffffffffffffffffffffffffffffffffffff1673ffffffffffffffffffffffffffffffffffffffff16ff5b565b60608160036005811115610a0e57fe5b6003600083815260200190815260200160002060090160009054906101000a900460ff166005811115610a3d57fe5b141515610a4957600080fd5b338073ffffffffffffffffffffffffffffffffffffffff163373ffffffffffffffffffffffffffffffffffffffff16141515610a8457600080fd5b60046003600086815260200190815260200160002060090160006101000a81548160ff02191690836005811115610ab757fe5b02179055503360036000868152602001908152602001600020600a0160006101000a81548173ffffffffffffffffffffffffffffffffffffffff021916908373ffffffffffffffffffffffffffffffffffffffff160217905550610b1a33611833565b925060408051908101604052806040805190810160405280600881526020017f50726f766964656400000000000000000000000000000000000000000000000081525081526020018481525060046000868152602001908152602001600020906002610b87929190611a7c565b507f9fc28325d1c165d1174b2f1ffe32514c50fb51246f0aef3dbcc75b99969dfc13846040518082815260200191505060405180910390a150505050565b600080600060606000806000806000600360008b8152602001908152602001600020600001549850600360008b8152602001908152602001600020600101549750600360008b8152602001908152602001600020600601549650600360008b81526020019081526020016000206007018054600181600116156101000203166002900480601f016020809104026020016040519081016040528092919081815260200182805460018160011615610100020316600290048015610cc95780601f10610c9e57610100808354040283529160200191610cc9565b820191906000526020600020905b815481529060010190602001808311610cac57829003601f168201915b50505050509550600360008b8152602001908152602001600020600801549450600360008b815260200190815260200160002060090160009054906101000a900460ff166005811115610d1857fe5b9350600360008b815260200190815260200160002060090160019054906101000a900473ffffffffffffffffffffffffffffffffffffffff169250600360008b8152602001908152602001600020600a0160009054906101000a900473ffffffffffffffffffffffffffffffffffffffff169150600360008b8152602001908152602001600020600b0160009054906101000a900473ffffffffffffffffffffffffffffffffffffffff1690508888888888888888889850985098509850985098509850985098509193959799909294969850565b60008060008060608060036000888152602001908152602001600020600001549550600360008881526020019081526020016000206001015494506003600088815260200190815260200160002060020160009054906101000a900473ffffffffffffffffffffffffffffffffffffffff1693506003600088815260200190815260200160002060030160009054906101000a900473ffffffffffffffffffffffffffffffffffffffff169250600360008881526020019081526020016000206004018054600181600116156101000203166002900480601f016020809104026020016040519081016040528092919081815260200182805460018160011615610100020316600290048015610f445780601f10610f1957610100808354040283529160200191610f44565b820191906000526020600020905b815481529060010190602001808311610f2757829003601f168201915b50505050509150600360008881526020019081526020016000206005018054600181600116156101000203166002900480601f016020809104026020016040519081016040528092919081815260200182805460018160011615610100020316600290048015610ff55780601f10610fca57610100808354040283529160200191610ff5565b820191906000526020600020905b815481529060010190602001808311610fd857829003601f168201915b5050505050905085858585858595509550955095509550955091939550919395565b6060816002600581111561102757fe5b6003600083815260200190815260200160002060090160009054906101000a900460ff16600581111561105657fe5b14151561106257600080fd5b6003600084815260200190815260200160002060090160019054906101000a900473ffffffffffffffffffffffffffffffffffffffff168073ffffffffffffffffffffffffffffffffffffffff163373ffffffffffffffffffffffffffffffffffffffff161415156110d357600080fd5b600380600086815260200190815260200160002060090160006101000a81548160ff0219169083600581111561110557fe5b021790555061111333611833565b925060408051908101604052806040805190810160405280600b81526020017f446973747269627574656400000000000000000000000000000000000000000081525081526020018481525060046000868152602001908152602001600020906002611180929190611a7c565b507fddc9c30275a04c48091f24199f9c405765de34d979d6847f5b9798a57232d2e5846040518082815260200191505060405180910390a150505050565b606081600060058111156111ce57fe5b6003600083815260200190815260200160002060090160009054906101000a900460ff1660058111156111fd57fe5b14151561120957600080fd5b338073ffffffffffffffffffffffffffffffffffffffff163373ffffffffffffffffffffffffffffffffffffffff1614151561124457600080fd5b60016003600086815260200190815260200160002060090160006101000a81548160ff0219169083600581111561127757fe5b0217905550336003600086815260200190815260200160002060090160016101000a81548173ffffffffffffffffffffffffffffffffffffffff021916908373ffffffffffffffffffffffffffffffffffffffff1602179055506112da33611833565b925060408051908101604052806040805190810160405280600781526020017f4f7264657265640000000000000000000000000000000000000000000000000081525081526020018481525060046000868152602001908152602001600020906002611347929190611a7c565b507fdf12868499c4ec2e9cbcb5df44ca919d6c49833559d36675b874bd5aa1335f1f846040518082815260200191505060405180910390a150505050565b6060816004600581111561139557fe5b6003600083815260200190815260200160002060090160009054906101000a900460ff1660058111156113c457fe5b1415156113d057600080fd5b60036000848152602001908152602001600020600801548034101515156113f657600080fd5b8360008060056003600089815260200190815260200160002060090160006101000a81548160ff0219169083600581111561142d57fe5b021790555061143b33611833565b955060408051908101604052806040805190810160405280600681526020017f426f756768740000000000000000000000000000000000000000000000000000815250815260200187815250600460008981526020019081526020016000209060026114a8929190611a7c565b503360036000898152602001908152602001600020600b0160006101000a81548173ffffffffffffffffffffffffffffffffffffffff021916908373ffffffffffffffffffffffffffffffffffffffff160217905550336003600089815260200190815260200160002060020160006101000a81548173ffffffffffffffffffffffffffffffffffffffff021916908373ffffffffffffffffffffffffffffffffffffffff1602179055506003600088815260200190815260200160002060030160009054906101000a900473ffffffffffffffffffffffffffffffffffffffff1673ffffffffffffffffffffffffffffffffffffffff166108fc600360008a8152602001908152602001600020600801549081150290604051600060405180830381858888f193505050501580156115e5573d6000803e3d6000fd5b507f4e08ba899977cf7d4c2964bce71c6b9a7ef76ee5166a4c1249a1e08016e33ef1876040518082815260200191505060405180910390a160036000848152602001908152602001600020600801549150813403905060036000848152602001908152602001600020600b0160009054906101000a900473ffffffffffffffffffffffffffffffffffffffff1673ffffffffffffffffffffffffffffffffffffffff166108fc829081150290604051600060405180830381858888f193505050501580156116b7573d6000803e3d6000fd5b5050505050505050565b606081600160058111156116d157fe5b6003600083815260200190815260200160002060090160009054906101000a900460ff16600581111561170057fe5b14151561170c57600080fd5b338073ffffffffffffffffffffffffffffffffffffffff163373ffffffffffffffffffffffffffffffffffffffff1614151561174757600080fd5b60026003600086815260200190815260200160002060090160006101000a81548160ff0219169083600581111561177a57fe5b021790555061178833611833565b925060408051908101604052806040805190810160405280600781526020017f5368697070656400000000000000000000000000000000000000000000000000815250815260200184815250600460008681526020019081526020016000209060026117f5929190611a7c565b507ff00b9a5725b80c54016f42114f6ed7792d22eecb116011c4afac29c57bef6c95846040518082815260200191505060405180910390a150505050565b6060600060146040519080825280601f01601f19166020018201604052801561186b5781602001602082028038833980820191505090505b509150600090505b6014811015611914578060130360080260020a8373ffffffffffffffffffffffffffffffffffffffff168115156118a657fe5b047f01000000000000000000000000000000000000000000000000000000000000000282828151811015156118d757fe5b9060200101907effffffffffffffffffffffffffffffffffffffffffffffffffffffffffffff1916908160001a9053508080600101915050611873565b50919050565b6101a0604051908101604052806000815260200160008152602001600073ffffffffffffffffffffffffffffffffffffffff168152602001600073ffffffffffffffffffffffffffffffffffffffff16815260200160608152602001606081526020016000815260200160608152602001600081526020016000600581111561199f57fe5b8152602001600073ffffffffffffffffffffffffffffffffffffffff168152602001600073ffffffffffffffffffffffffffffffffffffffff168152602001600073ffffffffffffffffffffffffffffffffffffffff1681525090565b828054600181600116156101000203166002900490600052602060002090601f016020900481019282601f10611a3d57805160ff1916838001178555611a6b565b82800160010185558215611a6b579182015b82811115611a6a578251825591602001919060010190611a4f565b5b509050611a789190611adc565b5090565b828054828255906000526020600020908101928215611acb579160200282015b82811115611aca578251829080519060200190611aba9291906119fc565b5091602001919060010190611a9c565b5b509050611ad89190611b01565b5090565b611afe91905b80821115611afa576000816000905550600101611ae2565b5090565b90565b611b2a91905b80821115611b265760008181611b1d9190611b2d565b50600101611b07565b5090565b90565b50805460018160011615610100020316600290046000825580601f10611b535750611b72565b601f016020900490600052602060002090810190611b719190611adc565b5b505600a165627a7a7230582017bf03def5d340526649d66efa732bd5a3183c3e8c3dc35034a0362625d8c0700029",
  "source": "pragma solidity >=0.4.21 <0.6.0;\r\n\r\n// Define a contract 'Supplychain'\r\ncontract SupplyChain {\r\n\r\n  // Define 'owner'\r\n  address owner;\r\n\r\n  // Define a variable called 'upc' for Universal Product Code (UPC)\r\n  uint  upc;\r\n\r\n  // Define a variable called 'sku' for Stock Keeping Unit (SKU)\r\n  uint  sku;\r\n\r\n  // Define a public mapping 'items' that maps the UPC to an Item.\r\n  mapping (uint => Item) items;\r\n\r\n  // Define a public mapping 'itemsHistory' that maps the UPC to an array of TxHash, \r\n  // that track its journey through the supply chain -- to be sent from DApp.\r\n  mapping (uint => string[]) itemsHistory;\r\n  \r\n  // Define enum 'State' with the following values:\r\n  enum State \r\n  { \r\n    Created,  // 0\r\n    Ordered,  // 1\r\n    Shipped,     // 2\r\n    Distributed,    // 3\r\n    Provided,       // 4\r\n    Bought    // 5\r\n    }\r\n\r\n  State constant defaultState = State.Created;\r\n\r\n  // Define a struct 'Item' with the following fields:\r\n  struct Item {\r\n    uint    sku;  // Stock Keeping Unit (SKU)\r\n    uint    upc; // Universal Product Code (UPC), generated by the Manufactory, goes on the package, can be verified by the Consumer\r\n    address ownerID;  // Metamask-Ethereum address of the current owner as the product moves through 6 stages\r\n    address originManufactoryID; // Metamask-Ethereum address of the Farmer\r\n    string  originManufactoryName; // Farmer Name\r\n    string  originManufactoryInformation;  // Farmer Information\r\n    uint    productID;  // Product ID potentially a combination of upc + sku\r\n    string  productNotes; // Product Notes\r\n    uint    productPrice; // Product Price\r\n    State   itemState;  // Product State as represented in the enum above\r\n    address distributorID;  // Metamask-Ethereum address of the Distributor\r\n    address retailerID; // Metamask-Ethereum address of the Retailer\r\n    address consumerID; // Metamask-Ethereum address of the Consumer\r\n  }\r\n\r\n  // Define 8 events with the same 8 state values and accept 'upc' as input argument\r\n  event Created(uint upc);\r\n  event Ordered(uint upc);\r\n  event Shipped(uint upc);\r\n  event Distributed(uint upc);\r\n  event Provided(uint upc);\r\n  event Bought(uint upc);\r\n\r\n  // Define a modifer that checks to see if msg.sender == owner of the contract\r\n  modifier onlyOwner() {\r\n    require(msg.sender == owner);\r\n    _;\r\n  }\r\n\r\n  // Define a modifer that verifies the Caller\r\n  modifier verifyCaller (address _address) {\r\n    require(msg.sender == _address); \r\n    _;\r\n  }\r\n\r\n  // Define a modifier that checks if the paid amount is sufficient to cover the price\r\n  modifier paidEnough(uint _price) { \r\n    require(msg.value >= _price); \r\n    _;\r\n  }\r\n  \r\n  // Define a modifier that checks the price and refunds the remaining balance\r\n  modifier checkValue(uint _upc) {\r\n    _;\r\n    uint _price = items[_upc].productPrice;\r\n    uint amountToReturn = msg.value - _price;\r\n    // address payable payableConsumerID = _make_payable(items[_upc].consumerID);\r\n    items[_upc].consumerID.transfer(amountToReturn);\r\n  }\r\n\r\n  // Define a modifier that checks if an item.state of a upc is Harvested\r\n  modifier created(uint _upc) {\r\n    require(items[_upc].itemState == State.Created);\r\n    _;\r\n  }\r\n\r\n  // Define a modifier that checks if an item.state of a upc is Processed\r\n  modifier ordered(uint _upc) {\r\n    require(items[_upc].itemState == State.Ordered);\r\n    _;\r\n  }\r\n  \r\n  // Define a modifier that checks if an item.state of a upc is Packed\r\n  modifier shipped(uint _upc) {\r\n    require(items[_upc].itemState == State.Shipped);\r\n    _;\r\n  }\r\n\r\n  // Define a modifier that checks if an item.state of a upc is ForSale\r\n  modifier distributed(uint _upc) {\r\n    require(items[_upc].itemState == State.Distributed);\r\n    _;\r\n  }\r\n\r\n  // Define a modifier that checks if an item.state of a upc is Sold\r\n  modifier provided(uint _upc) {\r\n    require(items[_upc].itemState == State.Provided);\r\n    _;\r\n  }\r\n  \r\n  // Define a modifier that checks if an item.state of a upc is Shipped\r\n  modifier bought(uint _upc) {\r\n    require(items[_upc].itemState == State.Bought);\r\n    _;\r\n  }\r\n\r\n\r\n  // In the constructor set 'owner' to the address that instantiated the contract\r\n  // and set 'sku' to 1\r\n  // and set 'upc' to 1\r\n  constructor() public payable {\r\n    owner = msg.sender;\r\n    sku = 1;\r\n    upc = 1;\r\n  }\r\n\r\n  // Define a function 'kill' if required\r\n  function kill() public {\r\n    if (msg.sender == owner) {\r\n      // address payable payableOwner = _make_payable(owner);\r\n      selfdestruct(owner);\r\n    }\r\n  }\r\n\r\n  // Function that allows you to convert an address into a payable address\r\n    // function _make_payable(address x) internal pure returns (address payable) {\r\n    //     return address(uint160(x));\r\n    // }\r\n\r\n    function toBytes(address x) internal pure returns (bytes memory b) {\r\n    b = new bytes(20);\r\n    for (uint i = 0; i < 20; i++)\r\n        b[i] = byte(uint8(uint(x) / (2**(8*(19 - i)))));\r\n}\r\n\r\n  // Define a function 'harvestItem' that allows a farmer to mark an item 'Harvested'\r\n  function createItem(uint _upc, address _originManufactoryID, string memory _originManufactoryName, string memory _originManufactoryInformation, string memory _productNotes, uint _productPrice) public \r\n  {\r\n    // Add the new item as part of Harvest\r\n    Item memory item = Item(sku, _upc, msg.sender, _originManufactoryID, _originManufactoryName, _originManufactoryInformation, _upc + sku, _productNotes, _productPrice, State.Created, address(0), address(0), address(0));\r\n    items[_upc] = item;\r\n    string memory stringAddress = string(toBytes(msg.sender));  \r\n    itemsHistory[_upc] = [\"Created\", stringAddress];\r\n    // Increment sku\r\n    sku = sku + 1;\r\n    // Emit the appropriate event\r\n    emit Created(_upc);\r\n    \r\n  }\r\n\r\n  // Define a function 'processtItem' that allows a farmer to mark an item 'Processed'\r\n  function orderItem(uint _upc) public \r\n  // Call modifier to check if upc has passed previous supply chain stage\r\n  created(_upc)\r\n  // Call modifier to verify caller of this function\r\n  verifyCaller(msg.sender)\r\n  {\r\n    // Update the appropriate fields\r\n    items[_upc].itemState = State.Ordered;\r\n    items[_upc].distributorID = msg.sender;\r\n    string memory stringAddress = string(toBytes(msg.sender));\r\n    itemsHistory[_upc] = [\"Ordered\", stringAddress];\r\n    // Emit the appropriate event\r\n    emit Ordered(_upc);\r\n    \r\n  }\r\n\r\n  // Define a function 'packItem' that allows a farmer to mark an item 'Packed'\r\n  function shipItem(uint _upc) public \r\n  // Call modifier to check if upc has passed previous supply chain stage\r\n  ordered(_upc)\r\n  // Call modifier to verify caller of this function\r\n  verifyCaller(msg.sender)\r\n  {\r\n    // Update the appropriate fields\r\n    items[_upc].itemState = State.Shipped;\r\n    string memory stringAddress = string(toBytes(msg.sender));\r\n    itemsHistory[_upc] = [\"Shipped\", stringAddress];\r\n    // Emit the appropriate event\r\n    emit Shipped(_upc);\r\n    \r\n  }\r\n\r\n  // Define a function 'sellItem' that allows a farmer to mark an item 'ForSale'\r\n  function distribueItem(uint _upc) public \r\n  // Call modifier to check if upc has passed previous supply chain stage\r\n  shipped(_upc)\r\n  // Call modifier to verify caller of this function\r\n  verifyCaller(items[_upc].distributorID)\r\n  {\r\n    // Update the appropriate fields\r\n    items[_upc].itemState = State.Distributed;\r\n    string memory stringAddress = string(toBytes(msg.sender));\r\n    itemsHistory[_upc] = [\"Distributed\", stringAddress];\r\n    // Emit the appropriate event\r\n    emit Distributed(_upc);\r\n  }\r\n\r\n  // Define a function 'sellItem' that allows a farmer to mark an item 'ForSale'\r\n  function provideItem(uint _upc) public \r\n  // Call modifier to check if upc has passed previous supply chain stage\r\n  distributed(_upc)\r\n  // Call modifier to verify caller of this function\r\n  verifyCaller(msg.sender)\r\n  {\r\n    // Update the appropriate fields\r\n    items[_upc].itemState = State.Provided;\r\n    items[_upc].retailerID = msg.sender;\r\n    string memory stringAddress = string(toBytes(msg.sender));\r\n    itemsHistory[_upc] = [\"Provided\", stringAddress];\r\n    // Emit the appropriate event\r\n    emit Provided(_upc);\r\n  }\r\n\r\n  // Define a function 'buyItem' that allows the disributor to mark an item 'Sold'\r\n  // Use the above defined modifiers to check if the item is available for sale, if the buyer has paid enough, \r\n  // and any excess ether sent is refunded back to the buyer\r\n  function buyItem(uint _upc) public payable \r\n    // Call modifier to check if upc has passed previous supply chain stage\r\n    provided(_upc)\r\n    // Call modifer to check if buyer has paid enough\r\n    paidEnough(items[_upc].productPrice)\r\n    // Call modifer to send any excess ether back to buyer\r\n    checkValue(_upc)\r\n    {\r\n    \r\n    // Update the appropriate fields - ownerID, distributorID, itemState\r\n    items[_upc].itemState = State.Bought;\r\n    string memory stringAddress = string(toBytes(msg.sender));\r\n    itemsHistory[_upc] = [\"Bought\", stringAddress];\r\n    items[_upc].consumerID = msg.sender;\r\n    items[_upc].ownerID = msg.sender;\r\n    // Transfer money to farmer\r\n    // address payableManufactoryAddress = items[_upc].originManufactoryID;\r\n    items[_upc].originManufactoryID.transfer(items[_upc].productPrice);\r\n    // emit the appropriate event\r\n    emit Bought(_upc);\r\n  }\r\n\r\n\r\n  // Define a function 'fetchItemBufferOne' that fetches the data\r\n  function fetchItemBufferOne(uint _upc) public view returns \r\n  (\r\n  uint    itemSKU,\r\n  uint    itemUPC,\r\n  address ownerID,\r\n  address originManufactoryID,\r\n  string memory originManufactoryName,\r\n  string memory originManufactoryInformation\r\n  ) \r\n  {\r\n  // Assign values to the 8 parameters\r\n  itemSKU = items[_upc].sku;\r\n  itemUPC = items[_upc].upc;\r\n  ownerID = items[_upc].ownerID;\r\n  originManufactoryID = items[_upc].originManufactoryID;\r\n  originManufactoryName = items[_upc].originManufactoryName;\r\n  originManufactoryInformation = items[_upc].originManufactoryInformation;\r\n    \r\n  return \r\n  (\r\n  itemSKU,\r\n  itemUPC,\r\n  ownerID,\r\n  originManufactoryID,\r\n  originManufactoryName,\r\n  originManufactoryInformation\r\n  );\r\n  }\r\n\r\n  // Define a function 'fetchItemBufferTwo' that fetches the data\r\n  function fetchItemBufferTwo(uint _upc) public view returns \r\n  (\r\n  uint    itemSKU,\r\n  uint    itemUPC,\r\n  uint    productID,\r\n  string memory productNotes,\r\n  uint    productPrice,\r\n  uint    itemState,\r\n  address distributorID,\r\n  address retailerID,\r\n  address consumerID\r\n  ) \r\n  {\r\n    // Assign values to the 9 parameters\r\n    itemSKU = items[_upc].sku;\r\n    itemUPC = items[_upc].upc;\r\n    productID = items[_upc].productID;\r\n    productNotes = items[_upc].productNotes;\r\n    productPrice = items[_upc].productPrice;\r\n    itemState = uint(items[_upc].itemState);\r\n    distributorID = items[_upc].distributorID;\r\n    retailerID = items[_upc].retailerID;\r\n    consumerID = items[_upc].consumerID;\r\n    \r\n    \r\n  return \r\n  (\r\n  itemSKU,\r\n  itemUPC,\r\n  productID,\r\n  productNotes,\r\n  productPrice,\r\n  itemState,\r\n  distributorID,\r\n  retailerID,\r\n  consumerID\r\n  );\r\n  }\r\n}\r\n",
  "sourcePath": "C:/Users/HP/Desktop/project6/nd1309-Project-6b-Example-Template/project-6/contracts/medBase/SupplyChain.sol",
  "compiler": {
    "name": "solc",
    "version": "0.4.24+commit.e67f0147.Emscripten.clang"
  },
  "schemaVersion": "3.0.11",
  "updatedAt": "2019-08-06T19:32:08.953Z",
  "devdoc": {
    "methods": {}
  },
  "userdoc": {
    "methods": {}
  }
}